{
  "contractName": "crowdfunding",
  "abi": [
    {
      "inputs": [
        {
          "internalType": "uint256",
          "name": "daysCompletion",
          "type": "uint256"
        },
        {
          "internalType": "uint256",
          "name": "goalinWei",
          "type": "uint256"
        },
        {
          "internalType": "string",
          "name": "idescription",
          "type": "string"
        }
      ],
      "payable": false,
      "stateMutability": "nonpayable",
      "type": "constructor"
    },
    {
      "constant": true,
      "inputs": [],
      "name": "hasFund",
      "outputs": [
        {
          "internalType": "bool",
          "name": "",
          "type": "bool"
        }
      ],
      "payable": false,
      "stateMutability": "view",
      "type": "function"
    },
    {
      "constant": true,
      "inputs": [],
      "name": "getTime",
      "outputs": [
        {
          "internalType": "uint256",
          "name": "",
          "type": "uint256"
        }
      ],
      "payable": false,
      "stateMutability": "view",
      "type": "function"
    },
    {
      "constant": true,
      "inputs": [],
      "name": "getDescription",
      "outputs": [
        {
          "internalType": "string",
          "name": "",
          "type": "string"
        }
      ],
      "payable": false,
      "stateMutability": "view",
      "type": "function"
    },
    {
      "constant": true,
      "inputs": [],
      "name": "getValues",
      "outputs": [
        {
          "internalType": "uint256[]",
          "name": "",
          "type": "uint256[]"
        }
      ],
      "payable": false,
      "stateMutability": "view",
      "type": "function"
    },
    {
      "constant": false,
      "inputs": [],
      "name": "fund",
      "outputs": [],
      "payable": true,
      "stateMutability": "payable",
      "type": "function"
    },
    {
      "constant": false,
      "inputs": [],
      "name": "finishFunding",
      "outputs": [],
      "payable": false,
      "stateMutability": "nonpayable",
      "type": "function"
    },
    {
      "constant": true,
      "inputs": [],
      "name": "getBalance",
      "outputs": [
        {
          "internalType": "uint256",
          "name": "",
          "type": "uint256"
        }
      ],
      "payable": false,
      "stateMutability": "view",
      "type": "function"
    },
    {
      "constant": true,
      "inputs": [],
      "name": "getGoal",
      "outputs": [
        {
          "internalType": "uint256",
          "name": "",
          "type": "uint256"
        }
      ],
      "payable": false,
      "stateMutability": "view",
      "type": "function"
    },
    {
      "constant": true,
      "inputs": [],
      "name": "getFunderList",
      "outputs": [
        {
          "internalType": "address[]",
          "name": "",
          "type": "address[]"
        }
      ],
      "payable": false,
      "stateMutability": "view",
      "type": "function"
    }
  ],
  "bytecode": "0x60806040523480156200001157600080fd5b506040516200158c3803806200158c833981810160405260608110156200003757600080fd5b810190808051906020019092919080519060200190929190805160405193929190846401000000008211156200006c57600080fd5b838201915060208201858111156200008357600080fd5b8251866001820283011164010000000082111715620000a157600080fd5b8083526020830192505050908051906020019080838360005b83811015620000d7578082015181840152602081019050620000ba565b50505050905090810190601f168015620001055780820380516001836020036101000a031916815260200191505b50604052505050600082141562000184576040517f08c379a000000000000000000000000000000000000000000000000000000000815260040180806020018281038252601e8152602001807f4e65656420676f616c20746f206265206d6f7265207468616e207a65726f000081525060200191505060405180910390fd5b33600360006101000a81548173ffffffffffffffffffffffffffffffffffffffff021916908373ffffffffffffffffffffffffffffffffffffffff1602179055508160018190555082620151800242016000819055508060049080519060200190620001f29291906200045e565b506002606483816200020057fe5b0490806001815401808255809150509060018203906000526020600020016000909192909190915055507fffffffffffffffffffffffffffffffffffffffffffffffffffffffffffffffff60086000606485816200025a57fe5b048152602001908152602001600020819055506002603283816200027a57fe5b0490806001815401808255809150509060018203906000526020600020016000909192909190915055507fffffffffffffffffffffffffffffffffffffffffffffffffffffffffffffffff6008600060328581620002d457fe5b04815260200190815260200160002081905550600260148381620002f457fe5b0490806001815401808255809150509060018203906000526020600020016000909192909190915055507fffffffffffffffffffffffffffffffffffffffffffffffffffffffffffffffff60086000601485816200034e57fe5b048152602001908152602001600020819055506002600a83816200036e57fe5b0490806001815401808255809150509060018203906000526020600020016000909192909190915055507fffffffffffffffffffffffffffffffffffffffffffffffffffffffffffffffff60086000600a8581620003c857fe5b04815260200190815260200160002081905550600260058381620003e857fe5b0490806001815401808255809150509060018203906000526020600020016000909192909190915055507fffffffffffffffffffffffffffffffffffffffffffffffffffffffffffffffff60086000600585816200044257fe5b048152602001908152602001600020819055505050506200050d565b828054600181600116156101000203166002900490600052602060002090601f016020900481019282601f10620004a157805160ff1916838001178555620004d2565b82800160010185558215620004d2579182015b82811115620004d1578251825591602001919060010190620004b4565b5b509050620004e19190620004e5565b5090565b6200050a91905b8082111562000506576000816000905550600101620004ec565b5090565b90565b61106f806200051d6000396000f3fe6080604052600436106100865760003560e01c80636b6cab5d116100595780636b6cab5d146101dd578063ae6f4a5d1461020c578063b60d428814610278578063b97a7d2414610282578063ebae46be146102ad57610086565b806312065fe01461008b57806319eb4a90146100b65780631a09254114610122578063557ed1ba146101b2575b600080fd5b34801561009757600080fd5b506100a06102c4565b6040518082815260200191505060405180910390f35b3480156100c257600080fd5b506100cb6102e3565b6040518080602001828103825283818151815260200191508051906020019060200280838360005b8381101561010e5780820151818401526020810190506100f3565b505050509050019250505060405180910390f35b34801561012e57600080fd5b5061013761033b565b6040518080602001828103825283818151815260200191508051906020019080838360005b8381101561017757808201518184015260208101905061015c565b50505050905090810190601f1680156101a45780820380516001836020036101000a031916815260200191505b509250505060405180910390f35b3480156101be57600080fd5b506101c76103dd565b6040518082815260200191505060405180910390f35b3480156101e957600080fd5b506101f26103e6565b604051808215151515815260200191505060405180910390f35b34801561021857600080fd5b50610221610443565b6040518080602001828103825283818151815260200191508051906020019060200280838360005b83811015610264578082015181840152602081019050610249565b505050509050019250505060405180910390f35b6102806104d1565b005b34801561028e57600080fd5b506102976107f3565b6040518082815260200191505060405180910390f35b3480156102b957600080fd5b506102c26107fd565b005b60003073ffffffffffffffffffffffffffffffffffffffff1631905090565b6060600280548060200260200160405190810160405280929190818152602001828054801561033157602002820191906000526020600020905b81548152602001906001019080831161031d575b5050505050905090565b606060048054600181600116156101000203166002900480601f0160208091040260200160405190810160405280929190818152602001828054600181600116156101000203166002900480156103d35780601f106103a8576101008083540402835291602001916103d3565b820191906000526020600020905b8154815290600101906020018083116103b657829003601f168201915b5050505050905090565b60008054905090565b600080600760003373ffffffffffffffffffffffffffffffffffffffff1673ffffffffffffffffffffffffffffffffffffffff16815260200190815260200160002060000154141561043b5760009050610440565b600190505b90565b606060058054806020026020016040519081016040528092919081815260200182805480156104c757602002820191906000526020600020905b8160009054906101000a900473ffffffffffffffffffffffffffffffffffffffff1673ffffffffffffffffffffffffffffffffffffffff168152602001906001019080831161047d575b5050505050905090565b6000544210610548576040517f08c379a00000000000000000000000000000000000000000000000000000000081526004018080602001828103825260168152602001807f46756e64696e6720706572696f64206973206f7665720000000000000000000081525060200191505060405180910390fd5b600034116105be576040517f08c379a00000000000000000000000000000000000000000000000000000000081526004018080602001828103825260158152602001807f5468657265206973206e6f206269642076616c7565000000000000000000000081525060200191505060405180910390fd5b60006008600034815260200190815260200160002054141561062b576040517f08c379a000000000000000000000000000000000000000000000000000000000815260040180806020018281038252603c815260200180610fff603c913960400191505060405180910390fd5b6000600760003373ffffffffffffffffffffffffffffffffffffffff1673ffffffffffffffffffffffffffffffffffffffff1681526020019081526020016000206000015414156107a05760063390806001815401808255809150509060018203906000526020600020016000909192909190916101000a81548173ffffffffffffffffffffffffffffffffffffffff021916908373ffffffffffffffffffffffffffffffffffffffff160217905550507fffffffffffffffffffffffffffffffffffffffffffffffffffffffffffffffff6008600034815260200190815260200160002054141561073157600060086000348152602001908152602001600020819055505b600860003481526020019081526020016000206000815480929190600101919050555034600760003373ffffffffffffffffffffffffffffffffffffffff1673ffffffffffffffffffffffffffffffffffffffff168152602001908152602001600020600001819055506107f1565b6040517f08c379a0000000000000000000000000000000000000000000000000000000008152600401808060200182810382526023815260200180610fdc6023913960400191505060405180910390fd5b565b6000600154905090565b6000544211610874576040517f08c379a000000000000000000000000000000000000000000000000000000000815260040180806020018281038252601b8152602001807f46756e64696e6720706572696f64206973206e6f7420646f6e652e000000000081525060200191505060405180910390fd5b6000806000600680549050905060008090505b60028054905081101561090d57600154600282815481106108a457fe5b906000526020600020015460086000600285815481106108c057fe5b906000526020600020015481526020019081526020016000205402131561090057600281815481106108ee57fe5b9060005260206000200154935061090d565b8080600101915050610887565b506000831415610a375760008090505b600680549050811015610a2e576006818154811061093757fe5b9060005260206000200160009054906101000a900473ffffffffffffffffffffffffffffffffffffffff1673ffffffffffffffffffffffffffffffffffffffff166108fc600760006006858154811061098c57fe5b9060005260206000200160009054906101000a900473ffffffffffffffffffffffffffffffffffffffff1673ffffffffffffffffffffffffffffffffffffffff1673ffffffffffffffffffffffffffffffffffffffff168152602001908152602001600020600001549081150290604051600060405180830381858888f19350505050158015610a20573d6000803e3d6000fd5b50808060010191505061091d565b50505050610f93565b6002600081548110610a4557fe5b90600052602060002001548314610cce5760008090505b600680549050811015610cbb57836007600060068481548110610a7b57fe5b9060005260206000200160009054906101000a900473ffffffffffffffffffffffffffffffffffffffff1673ffffffffffffffffffffffffffffffffffffffff1673ffffffffffffffffffffffffffffffffffffffff168152602001908152602001600020600001541015610cae5760068181548110610af757fe5b9060005260206000200160009054906101000a900473ffffffffffffffffffffffffffffffffffffffff1673ffffffffffffffffffffffffffffffffffffffff166108fc6007600060068581548110610b4c57fe5b9060005260206000200160009054906101000a900473ffffffffffffffffffffffffffffffffffffffff1673ffffffffffffffffffffffffffffffffffffffff1673ffffffffffffffffffffffffffffffffffffffff168152602001908152602001600020600001549081150290604051600060405180830381858888f19350505050158015610be0573d6000803e3d6000fd5b506007600060068381548110610bf257fe5b9060005260206000200160009054906101000a900473ffffffffffffffffffffffffffffffffffffffff1673ffffffffffffffffffffffffffffffffffffffff1673ffffffffffffffffffffffffffffffffffffffff1681526020019081526020016000206000808201600090556001820160009055505060068181548110610c7757fe5b9060005260206000200160006101000a81549073ffffffffffffffffffffffffffffffffffffffff02191690558180600190039250505b8080600101915050610a5c565b5060018160015481610cc957fe5b050191505b60008090505b6000821115610ef557600073ffffffffffffffffffffffffffffffffffffffff1660068281548110610d0257fe5b9060005260206000200160009054906101000a900473ffffffffffffffffffffffffffffffffffffffff1673ffffffffffffffffffffffffffffffffffffffff1614610ee85760068181548110610d5557fe5b9060005260206000200160009054906101000a900473ffffffffffffffffffffffffffffffffffffffff1673ffffffffffffffffffffffffffffffffffffffff166108fc846007600060068681548110610dab57fe5b9060005260206000200160009054906101000a900473ffffffffffffffffffffffffffffffffffffffff1673ffffffffffffffffffffffffffffffffffffffff1673ffffffffffffffffffffffffffffffffffffffff16815260200190815260200160002060000154039081150290604051600060405180830381858888f19350505050158015610e40573d6000803e3d6000fd5b50600560068281548110610e5057fe5b9060005260206000200160009054906101000a900473ffffffffffffffffffffffffffffffffffffffff1690806001815401808255809150509060018203906000526020600020016000909192909190916101000a81548173ffffffffffffffffffffffffffffffffffffffff021916908373ffffffffffffffffffffffffffffffffffffffff160217905550508180600190039250505b8080600101915050610cd4565b600360009054906101000a900473ffffffffffffffffffffffffffffffffffffffff1673ffffffffffffffffffffffffffffffffffffffff166108fc3073ffffffffffffffffffffffffffffffffffffffff16319081150290604051600060405180830381858888f19350505050158015610f74573d6000803e3d6000fd5b5060026000610f839190610f95565b6001600090556000809055505050505b565b5080546000825590600052602060002090810190610fb39190610fb6565b50565b610fd891905b80821115610fd4576000816000905550600101610fbc565b5090565b9056fe43757272656e746c79206e6f206f7074696f6e20746f20726576657274206d6f6e6579496e76616c69642066756e6420616d6f756e74206f6e6c792074686573652061726520616c6c6f77656420636865636b2067657456616c7565732829a265627a7a72315820820bbbf607a6be16271d178074ff970a1a478b8cc85818be6d08c5c382910fc764736f6c634300050c0032",
  "source": "pragma solidity >=0.4.22 <0.6.0;\r\n\r\ncontract startanddeploy {\r\n\r\n    struct crowdfundlist {\r\n        address owner;\r\n        address crowdfundContract;\r\n    }\r\n    crowdfundlist[] public contractList;\r\n\r\n    function createCrowdFund(uint daysCompletion,uint goalinWei, string memory idescription) public returns (address){\r\n        address newContract = address(new crowdfunding(daysCompletion,goalinWei,idescription));\r\n        contractList.push(crowdfundlist(msg.sender,newContract));\r\n        return newContract;\r\n    }\r\n}\r\n\r\ncontract crowdfunding{\r\n    \r\n    //Funder Struct\r\n    struct funder {\r\n        uint fund;\r\n        uint position;\r\n    }\r\n    \r\n    //Variables\r\n    uint finishTime;\r\n    int goal;\r\n    uint[] values;\r\n    address payable owner;\r\n    string description;\r\n    address[] funderList;\r\n    address payable[] allFunders;\r\n    mapping(address => funder) addressToValue;\r\n    mapping(uint => int) indexes;\r\n    \r\n    //Constructor\r\n    constructor(uint daysCompletion, uint goalinWei,string memory idescription) public {\r\n        require(goalinWei != 0,\"Need goal to be more than zero\");\r\n        owner = msg.sender;\r\n        goal = int(goalinWei);\r\n        finishTime = now + (24 * 60 * 60 * daysCompletion);\r\n        description = idescription;\r\n        values.push(goalinWei/(100));\r\n        indexes[goalinWei/(100)] = -1;  \r\n        values.push(goalinWei/(50));\r\n        indexes[goalinWei/(50)] = -1;  \r\n        values.push(goalinWei/(20));\r\n        indexes[goalinWei/(20)] = -1;  \r\n        values.push(goalinWei/(10));\r\n        indexes[goalinWei/(10)] = -1;  \r\n        values.push(goalinWei/(5));\r\n        indexes[goalinWei/(5)] = -1;  \r\n\r\n    }\r\n    function hasFund()public view returns (bool){\r\n        if(addressToValue[msg.sender].fund == 0){\r\n            return false;\r\n        }else{\r\n            return true;\r\n        }\r\n    }\r\n    function getTime() public view returns(uint){\r\n        return finishTime;\r\n    }\r\n    function getDescription() public view returns (string memory){\r\n        return description;\r\n    }\r\n    //Check allowed values\r\n    function getValues() public view returns (uint[] memory){\r\n        return values;\r\n    }\r\n    \r\n    //fund\r\n    function fund() external payable{\r\n        \r\n        //Validate funding\r\n        require(now < finishTime,\"Funding period is over\");\r\n        require(msg.value > 0,\"There is no bid value\");\r\n        require(indexes[msg.value] != 0,\"Invalid fund amount only these are allowed check getValues()\");\r\n        \r\n        if(addressToValue[msg.sender].fund == 0){\r\n            allFunders.push(msg.sender);\r\n            if(indexes[msg.value] == -1){\r\n                indexes[msg.value] = 0;\r\n            }\r\n            indexes[msg.value]++;\r\n            addressToValue[msg.sender].fund = msg.value;\r\n        }else{\r\n            //option to add more money\r\n            revert(\"Currently no option to revert money\");\r\n        }\r\n        \r\n    }\r\n    \r\n    //function test(int a)public returns (int){\r\n    //    return (-300*((a*a*a)-3*a*16))/(6*4**3);\r\n    //}\r\n    \r\n    //End crowdfunding callable by anyone to resign control from the creator\r\n    function finishFunding() public {\r\n        \r\n        \r\n        require(now > finishTime, \"Funding period is not done.\");\r\n        int finalValue;\r\n        int price;\r\n        uint trueLength = allFunders.length;\r\n        \r\n        for(uint i = 0;i<values.length;i++){\r\n            if(indexes[values[i]]*int(values[i]) > goal){\r\n                finalValue = int(values[i]); \r\n                break;\r\n            }\r\n        }\r\n        if(finalValue == 0){\r\n            //refund if goal is not possible\r\n            for(uint a = 0; a<allFunders.length;a++){\r\n                allFunders[a].transfer(addressToValue[allFunders[a]].fund);\r\n            }\r\n            return;\r\n            //revert(\"Funding goal couldn't be achieved refunded all funders\");\r\n        //refund those users who didn't make threshold\r\n        }else if(finalValue != int(values[0])){\r\n            for(uint a = 0; a<allFunders.length;a++){\r\n                if(addressToValue[allFunders[a]].fund < uint(finalValue)){\r\n                    allFunders[a].transfer(addressToValue[allFunders[a]].fund);\r\n                    delete addressToValue[allFunders[a]];\r\n                    delete allFunders[a];\r\n                    trueLength--;\r\n                }\r\n            }\r\n            \r\n            price = (goal /int(trueLength))+1;\r\n        }\r\n        //uint[] memory listOfRefunds = new uint[](trueLength); //moving values to memory\r\n        uint iter = 0;\r\n       while (trueLength > 0){\r\n           if(allFunders[iter] != address(0)){\r\n               allFunders[iter].transfer(addressToValue[allFunders[iter]].fund - uint(price));\r\n               funderList.push(allFunders[iter]);\r\n               trueLength--;\r\n           }\r\n           iter++;\r\n       }\r\n\r\n        owner.transfer(address(this).balance);\r\n        \r\n        delete values;\r\n        delete goal;\r\n        delete finishTime;\r\n    }\r\n    \r\n    function getBalance() public view returns (uint){\r\n        return address(this).balance;\r\n    }\r\n    function getGoal() public view returns (uint){\r\n        return uint(goal);\r\n    }\r\n    function getFunderList() public view returns (address[] memory){\r\n        return funderList;\r\n    }\r\n}\r\n",
  "sourcePath": "/mnt/c/Users/Andrew Chen/Documents/github/CrowdFunding/DAPP website/contracts/crowdfunding.sol",
  "compiler": {
    "name": "solc",
    "version": "0.5.12+commit.7709ece9.Emscripten.clang"
  },
  "schemaVersion": "3.0.16",
  "updatedAt": "2019-10-28T16:08:33.928Z",
  "devdoc": {
    "methods": {}
  },
  "userdoc": {
    "methods": {}
  }
}