{
  "contractName": "crowdfunding",
  "abi": [
    {
      "inputs": [
        {
          "internalType": "uint256",
          "name": "daysCompletion",
          "type": "uint256"
        },
        {
          "internalType": "uint256",
          "name": "goalinWei",
          "type": "uint256"
        },
        {
          "internalType": "string",
          "name": "idescription",
          "type": "string"
        }
      ],
      "payable": false,
      "stateMutability": "nonpayable",
      "type": "constructor"
    },
    {
      "constant": true,
      "inputs": [],
      "name": "ifCompleted",
      "outputs": [
        {
          "internalType": "bool",
          "name": "",
          "type": "bool"
        }
      ],
      "payable": false,
      "stateMutability": "view",
      "type": "function"
    },
    {
      "constant": true,
      "inputs": [],
      "name": "getFunderValues",
      "outputs": [
        {
          "internalType": "uint256[]",
          "name": "",
          "type": "uint256[]"
        }
      ],
      "payable": false,
      "stateMutability": "view",
      "type": "function"
    },
    {
      "constant": true,
      "inputs": [],
      "name": "hasFund",
      "outputs": [
        {
          "internalType": "bool",
          "name": "",
          "type": "bool"
        }
      ],
      "payable": false,
      "stateMutability": "view",
      "type": "function"
    },
    {
      "constant": true,
      "inputs": [],
      "name": "getTime",
      "outputs": [
        {
          "internalType": "uint256",
          "name": "",
          "type": "uint256"
        }
      ],
      "payable": false,
      "stateMutability": "view",
      "type": "function"
    },
    {
      "constant": true,
      "inputs": [],
      "name": "getDescription",
      "outputs": [
        {
          "internalType": "string",
          "name": "",
          "type": "string"
        }
      ],
      "payable": false,
      "stateMutability": "view",
      "type": "function"
    },
    {
      "constant": true,
      "inputs": [],
      "name": "getValues",
      "outputs": [
        {
          "internalType": "uint256[]",
          "name": "",
          "type": "uint256[]"
        }
      ],
      "payable": false,
      "stateMutability": "view",
      "type": "function"
    },
    {
      "constant": false,
      "inputs": [],
      "name": "fund",
      "outputs": [
        {
          "internalType": "bool",
          "name": "",
          "type": "bool"
        }
      ],
      "payable": true,
      "stateMutability": "payable",
      "type": "function"
    },
    {
      "constant": false,
      "inputs": [],
      "name": "finishFunding",
      "outputs": [],
      "payable": false,
      "stateMutability": "nonpayable",
      "type": "function"
    },
    {
      "constant": true,
      "inputs": [],
      "name": "getBalance",
      "outputs": [
        {
          "internalType": "uint256",
          "name": "",
          "type": "uint256"
        }
      ],
      "payable": false,
      "stateMutability": "view",
      "type": "function"
    },
    {
      "constant": true,
      "inputs": [],
      "name": "getGoal",
      "outputs": [
        {
          "internalType": "uint256",
          "name": "",
          "type": "uint256"
        }
      ],
      "payable": false,
      "stateMutability": "view",
      "type": "function"
    },
    {
      "constant": true,
      "inputs": [],
      "name": "getFunderList",
      "outputs": [
        {
          "internalType": "address[]",
          "name": "",
          "type": "address[]"
        }
      ],
      "payable": false,
      "stateMutability": "view",
      "type": "function"
    }
  ],
  "bytecode": "0x60806040526000600360006101000a81548160ff0219169083151502179055503480156200002c57600080fd5b50604051620018e1380380620018e1833981810160405260608110156200005257600080fd5b810190808051906020019092919080519060200190929190805160405193929190846401000000008211156200008757600080fd5b838201915060208201858111156200009e57600080fd5b8251866001820283011164010000000082111715620000bc57600080fd5b8083526020830192505050908051906020019080838360005b83811015620000f2578082015181840152602081019050620000d5565b50505050905090810190601f168015620001205780820380516001836020036101000a031916815260200191505b5060405250505060008214156200019f576040517f08c379a000000000000000000000000000000000000000000000000000000000815260040180806020018281038252601e8152602001807f4e65656420676f616c20746f206265206d6f7265207468616e207a65726f000081525060200191505060405180910390fd5b33600360016101000a81548173ffffffffffffffffffffffffffffffffffffffff021916908373ffffffffffffffffffffffffffffffffffffffff16021790555081600181905550826201518002420160008190555080600490805190602001906200020d92919062000479565b506002606483816200021b57fe5b0490806001815401808255809150509060018203906000526020600020016000909192909190915055507fffffffffffffffffffffffffffffffffffffffffffffffffffffffffffffffff60086000606485816200027557fe5b048152602001908152602001600020819055506002603283816200029557fe5b0490806001815401808255809150509060018203906000526020600020016000909192909190915055507fffffffffffffffffffffffffffffffffffffffffffffffffffffffffffffffff6008600060328581620002ef57fe5b048152602001908152602001600020819055506002601483816200030f57fe5b0490806001815401808255809150509060018203906000526020600020016000909192909190915055507fffffffffffffffffffffffffffffffffffffffffffffffffffffffffffffffff60086000601485816200036957fe5b048152602001908152602001600020819055506002600a83816200038957fe5b0490806001815401808255809150509060018203906000526020600020016000909192909190915055507fffffffffffffffffffffffffffffffffffffffffffffffffffffffffffffffff60086000600a8581620003e357fe5b048152602001908152602001600020819055506002600583816200040357fe5b0490806001815401808255809150509060018203906000526020600020016000909192909190915055507fffffffffffffffffffffffffffffffffffffffffffffffffffffffffffffffff60086000600585816200045d57fe5b0481526020019081526020016000208190555050505062000528565b828054600181600116156101000203166002900490600052602060002090601f016020900481019282601f10620004bc57805160ff1916838001178555620004ed565b82800160010185558215620004ed579182015b82811115620004ec578251825591602001919060010190620004cf565b5b509050620004fc919062000500565b5090565b6200052591905b808211156200052157600081600090555060010162000507565b5090565b90565b6113a980620005386000396000f3fe60806040526004361061009c5760003560e01c8063557ed1ba11610064578063557ed1ba146102635780636b6cab5d1461028e578063ae6f4a5d146102bd578063b60d428814610329578063b97a7d241461034b578063ebae46be146103765761009c565b806312065fe0146100a157806319eb4a90146100cc5780631a09254114610138578063412f5d40146101c85780634f580ffc146101f7575b600080fd5b3480156100ad57600080fd5b506100b661038d565b6040518082815260200191505060405180910390f35b3480156100d857600080fd5b506100e16103ac565b6040518080602001828103825283818151815260200191508051906020019060200280838360005b83811015610124578082015181840152602081019050610109565b505050509050019250505060405180910390f35b34801561014457600080fd5b5061014d610404565b6040518080602001828103825283818151815260200191508051906020019080838360005b8381101561018d578082015181840152602081019050610172565b50505050905090810190601f1680156101ba5780820380516001836020036101000a031916815260200191505b509250505060405180910390f35b3480156101d457600080fd5b506101dd6104a6565b604051808215151515815260200191505060405180910390f35b34801561020357600080fd5b5061020c6104bd565b6040518080602001828103825283818151815260200191508051906020019060200280838360005b8381101561024f578082015181840152602081019050610234565b505050509050019250505060405180910390f35b34801561026f57600080fd5b506102786105b1565b6040518082815260200191505060405180910390f35b34801561029a57600080fd5b506102a36105ba565b604051808215151515815260200191505060405180910390f35b3480156102c957600080fd5b506102d2610617565b6040518080602001828103825283818151815260200191508051906020019060200280838360005b838110156103155780820151818401526020810190506102fa565b505050509050019250505060405180910390f35b6103316106f7565b604051808215151515815260200191505060405180910390f35b34801561035757600080fd5b50610360610b2d565b6040518082815260200191505060405180910390f35b34801561038257600080fd5b5061038b610b37565b005b60003073ffffffffffffffffffffffffffffffffffffffff1631905090565b606060028054806020026020016040519081016040528092919081815260200182805480156103fa57602002820191906000526020600020905b8154815260200190600101908083116103e6575b5050505050905090565b606060048054600181600116156101000203166002900480601f01602080910402602001604051908101604052809291908181526020018280546001816001161561010002031660029004801561049c5780601f106104715761010080835404028352916020019161049c565b820191906000526020600020905b81548152906001019060200180831161047f57829003601f168201915b5050505050905090565b6000600360009054906101000a900460ff16905090565b6060806006805490506040519080825280602002602001820160405280156104f45781602001602082028038833980820191505090505b50905060008090505b6006805490508110156105a957600760006006838154811061051b57fe5b9060005260206000200160009054906101000a900473ffffffffffffffffffffffffffffffffffffffff1673ffffffffffffffffffffffffffffffffffffffff1673ffffffffffffffffffffffffffffffffffffffff1681526020019081526020016000206000015482828151811061059057fe5b60200260200101818152505080806001019150506104fd565b508091505090565b60008054905090565b600080600760003373ffffffffffffffffffffffffffffffffffffffff1673ffffffffffffffffffffffffffffffffffffffff16815260200190815260200160002060000154141561060f5760009050610614565b600190505b90565b60608060068054905060405190808252806020026020018201604052801561064e5781602001602082028038833980820191505090505b50905060008090505b6006805490508110156106ef576006818154811061067157fe5b9060005260206000200160009054906101000a900473ffffffffffffffffffffffffffffffffffffffff168282815181106106a857fe5b602002602001019073ffffffffffffffffffffffffffffffffffffffff16908173ffffffffffffffffffffffffffffffffffffffff16815250508080600101915050610657565b508091505090565b60008054421061076f576040517f08c379a00000000000000000000000000000000000000000000000000000000081526004018080602001828103825260168152602001807f46756e64696e6720706572696f64206973206f7665720000000000000000000081525060200191505060405180910390fd5b600034116107e5576040517f08c379a00000000000000000000000000000000000000000000000000000000081526004018080602001828103825260158152602001807f5468657265206973206e6f206269642076616c7565000000000000000000000081525060200191505060405180910390fd5b600060086000348152602001908152602001600020541415610852576040517f08c379a000000000000000000000000000000000000000000000000000000000815260040180806020018281038252603c815260200180611339603c913960400191505060405180910390fd5b6000600760003373ffffffffffffffffffffffffffffffffffffffff1673ffffffffffffffffffffffffffffffffffffffff1681526020019081526020016000206000015414156109c75760063390806001815401808255809150509060018203906000526020600020016000909192909190916101000a81548173ffffffffffffffffffffffffffffffffffffffff021916908373ffffffffffffffffffffffffffffffffffffffff160217905550507fffffffffffffffffffffffffffffffffffffffffffffffffffffffffffffffff6008600034815260200190815260200160002054141561095857600060086000348152602001908152602001600020819055505b600860003481526020019081526020016000206000815480929190600101919050555034600760003373ffffffffffffffffffffffffffffffffffffffff1673ffffffffffffffffffffffffffffffffffffffff16815260200190815260200160002060000181905550610a18565b6040517f08c379a00000000000000000000000000000000000000000000000000000000081526004018080602001828103825260238152602001806113166023913960400191505060405180910390fd5b6001543073ffffffffffffffffffffffffffffffffffffffff163110610b2557600360019054906101000a900473ffffffffffffffffffffffffffffffffffffffff1673ffffffffffffffffffffffffffffffffffffffff166108fc6001549081150290604051600060405180830381858888f19350505050158015610aa2573d6000803e3d6000fd5b503373ffffffffffffffffffffffffffffffffffffffff166108fc3073ffffffffffffffffffffffffffffffffffffffff16319081150290604051600060405180830381858888f19350505050158015610b00573d6000803e3d6000fd5b506001600360006101000a81548160ff02191690831515021790555060019050610b2a565b600090505b90565b6000600154905090565b6000544211610bae576040517f08c379a000000000000000000000000000000000000000000000000000000000815260040180806020018281038252601b8152602001807f46756e64696e6720706572696f64206973206e6f7420646f6e652e000000000081525060200191505060405180910390fd5b6000806000600680549050905060008090505b600280549050811015610c475760015460028281548110610bde57fe5b90600052602060002001546008600060028581548110610bfa57fe5b9060005260206000200154815260200190815260200160002054021315610c3a5760028181548110610c2857fe5b90600052602060002001549350610c47565b8080600101915050610bc1565b506000831415610d715760008090505b600680549050811015610d685760068181548110610c7157fe5b9060005260206000200160009054906101000a900473ffffffffffffffffffffffffffffffffffffffff1673ffffffffffffffffffffffffffffffffffffffff166108fc6007600060068581548110610cc657fe5b9060005260206000200160009054906101000a900473ffffffffffffffffffffffffffffffffffffffff1673ffffffffffffffffffffffffffffffffffffffff1673ffffffffffffffffffffffffffffffffffffffff168152602001908152602001600020600001549081150290604051600060405180830381858888f19350505050158015610d5a573d6000803e3d6000fd5b508080600101915050610c57565b505050506112cd565b6002600081548110610d7f57fe5b906000526020600020015483146110085760008090505b600680549050811015610ff557836007600060068481548110610db557fe5b9060005260206000200160009054906101000a900473ffffffffffffffffffffffffffffffffffffffff1673ffffffffffffffffffffffffffffffffffffffff1673ffffffffffffffffffffffffffffffffffffffff168152602001908152602001600020600001541015610fe85760068181548110610e3157fe5b9060005260206000200160009054906101000a900473ffffffffffffffffffffffffffffffffffffffff1673ffffffffffffffffffffffffffffffffffffffff166108fc6007600060068581548110610e8657fe5b9060005260206000200160009054906101000a900473ffffffffffffffffffffffffffffffffffffffff1673ffffffffffffffffffffffffffffffffffffffff1673ffffffffffffffffffffffffffffffffffffffff168152602001908152602001600020600001549081150290604051600060405180830381858888f19350505050158015610f1a573d6000803e3d6000fd5b506007600060068381548110610f2c57fe5b9060005260206000200160009054906101000a900473ffffffffffffffffffffffffffffffffffffffff1673ffffffffffffffffffffffffffffffffffffffff1673ffffffffffffffffffffffffffffffffffffffff1681526020019081526020016000206000808201600090556001820160009055505060068181548110610fb157fe5b9060005260206000200160006101000a81549073ffffffffffffffffffffffffffffffffffffffff02191690558180600190039250505b8080600101915050610d96565b506001816001548161100357fe5b050191505b60008090505b600082111561122f57600073ffffffffffffffffffffffffffffffffffffffff166006828154811061103c57fe5b9060005260206000200160009054906101000a900473ffffffffffffffffffffffffffffffffffffffff1673ffffffffffffffffffffffffffffffffffffffff1614611222576006818154811061108f57fe5b9060005260206000200160009054906101000a900473ffffffffffffffffffffffffffffffffffffffff1673ffffffffffffffffffffffffffffffffffffffff166108fc8460076000600686815481106110e557fe5b9060005260206000200160009054906101000a900473ffffffffffffffffffffffffffffffffffffffff1673ffffffffffffffffffffffffffffffffffffffff1673ffffffffffffffffffffffffffffffffffffffff16815260200190815260200160002060000154039081150290604051600060405180830381858888f1935050505015801561117a573d6000803e3d6000fd5b5060056006828154811061118a57fe5b9060005260206000200160009054906101000a900473ffffffffffffffffffffffffffffffffffffffff1690806001815401808255809150509060018203906000526020600020016000909192909190916101000a81548173ffffffffffffffffffffffffffffffffffffffff021916908373ffffffffffffffffffffffffffffffffffffffff160217905550508180600190039250505b808060010191505061100e565b600360019054906101000a900473ffffffffffffffffffffffffffffffffffffffff1673ffffffffffffffffffffffffffffffffffffffff166108fc3073ffffffffffffffffffffffffffffffffffffffff16319081150290604051600060405180830381858888f193505050501580156112ae573d6000803e3d6000fd5b50600260006112bd91906112cf565b6001600090556000809055505050505b565b50805460008255906000526020600020908101906112ed91906112f0565b50565b61131291905b8082111561130e5760008160009055506001016112f6565b5090565b9056fe43757272656e746c79206e6f206f7074696f6e20746f20726576657274206d6f6e6579496e76616c69642066756e6420616d6f756e74206f6e6c792074686573652061726520616c6c6f77656420636865636b2067657456616c7565732829a265627a7a723158203cf9034cfe1c48acb55badabec073a88d1d58e0d2546c97c5f90687732b6adc164736f6c634300050c0032",
  "source": "pragma solidity >=0.4.22 <0.6.0;\r\n\r\ncontract startanddeploy {\r\n\r\n    struct crowdfundlist {\r\n        address owner;\r\n        address crowdfundContract;\r\n    }\r\n    crowdfundlist[] public contractList;\r\n\r\n    function createCrowdFund(uint daysCompletion,uint goalinWei, string memory idescription) public returns (address){\r\n        address newContract = address(new crowdfunding(daysCompletion,goalinWei,idescription));\r\n        contractList.push(crowdfundlist(msg.sender,newContract));\r\n        return newContract;\r\n    }\r\n}\r\n\r\ncontract crowdfunding{\r\n    \r\n    //Funder Struct\r\n    struct funder {\r\n        uint fund;\r\n        uint position;\r\n    }\r\n    \r\n    //Variables\r\n    uint finishTime;\r\n    int goal;\r\n    uint[] values;\r\n    bool completed = false;\r\n    address payable owner;\r\n    string description;\r\n    address[] funderList;\r\n    address payable[] allFunders;\r\n    mapping(address => funder) addressToValue;\r\n    mapping(uint => int) indexes;\r\n\r\n    function ifCompleted()public view returns (bool){\r\n        return completed;\r\n    }\r\n    \r\n    //Constructor\r\n    constructor(uint daysCompletion, uint goalinWei,string memory idescription) public {\r\n        require(goalinWei != 0,\"Need goal to be more than zero\");\r\n        owner = msg.sender;\r\n        goal = int(goalinWei);\r\n        finishTime = now + (24 * 60 * 60 * daysCompletion);\r\n        description = idescription;\r\n        values.push(goalinWei/(100));\r\n        indexes[goalinWei/(100)] = -1;  \r\n        values.push(goalinWei/(50));\r\n        indexes[goalinWei/(50)] = -1;  \r\n        values.push(goalinWei/(20));\r\n        indexes[goalinWei/(20)] = -1;  \r\n        values.push(goalinWei/(10));\r\n        indexes[goalinWei/(10)] = -1;  \r\n        values.push(goalinWei/(5));\r\n        indexes[goalinWei/(5)] = -1;  \r\n\r\n    }\r\n    function getFunderValues() public view returns (uint[] memory){\r\n        uint[] memory allvalues = new uint[](allFunders.length);\r\n        for(uint i =0; i< allFunders.length;i++){\r\n            allvalues[i] = addressToValue[allFunders[i]].fund;\r\n        }\r\n        return allvalues;\r\n    }\r\n\r\n    function hasFund()public view returns (bool){\r\n        if(addressToValue[msg.sender].fund == 0){\r\n            return false;\r\n        }else{\r\n            return true;\r\n        }\r\n    }\r\n    function getTime() public view returns(uint){\r\n        return finishTime;\r\n    }\r\n    function getDescription() public view returns (string memory){\r\n        return description;\r\n    }\r\n    //Check allowed values\r\n    function getValues() public view returns (uint[] memory){\r\n        return values;\r\n    }\r\n    \r\n    //fund\r\n    function fund() external payable returns (bool){\r\n        \r\n        //Validate funding\r\n        require(now < finishTime,\"Funding period is over\");\r\n        require(msg.value > 0,\"There is no bid value\");\r\n        require(indexes[msg.value] != 0,\"Invalid fund amount only these are allowed check getValues()\");\r\n        \r\n        if(addressToValue[msg.sender].fund == 0){\r\n            allFunders.push(msg.sender);\r\n            if(indexes[msg.value] == -1){\r\n                indexes[msg.value] = 0;\r\n            }\r\n            indexes[msg.value]++;\r\n            addressToValue[msg.sender].fund = msg.value;\r\n        }else{\r\n            //option to add more money\r\n            revert(\"Currently no option to revert money\");\r\n        }\r\n        if(address(this).balance >= uint(goal)){\r\n            owner.transfer(uint(goal));\r\n            msg.sender.transfer(address(this).balance);\r\n            completed = true;\r\n            return true;\r\n        }\r\n        return false;\r\n        \r\n    }\r\n    \r\n    //function test(int a)public returns (int){\r\n    //    return (-300*((a*a*a)-3*a*16))/(6*4**3);\r\n    //}\r\n    \r\n    //End crowdfunding callable by anyone to resign control from the creator\r\n    function finishFunding() public {\r\n        \r\n        \r\n        require(now > finishTime, \"Funding period is not done.\");\r\n        int finalValue;\r\n        int price;\r\n        uint trueLength = allFunders.length;\r\n        \r\n        for(uint i = 0;i<values.length;i++){\r\n            if(indexes[values[i]]*int(values[i]) > goal){\r\n                finalValue = int(values[i]); \r\n                break;\r\n            }\r\n        }\r\n        if(finalValue == 0){\r\n            //refund if goal is not possible\r\n            for(uint a = 0; a<allFunders.length;a++){\r\n                allFunders[a].transfer(addressToValue[allFunders[a]].fund);\r\n            }\r\n            return;\r\n            //revert(\"Funding goal couldn't be achieved refunded all funders\");\r\n        //refund those users who didn't make threshold\r\n        }else if(finalValue != int(values[0])){\r\n            for(uint a = 0; a<allFunders.length;a++){\r\n                if(addressToValue[allFunders[a]].fund < uint(finalValue)){\r\n                    allFunders[a].transfer(addressToValue[allFunders[a]].fund);\r\n                    delete addressToValue[allFunders[a]];\r\n                    delete allFunders[a];\r\n                    trueLength--;\r\n                }\r\n            }\r\n            \r\n            price = (goal /int(trueLength))+1;\r\n        }\r\n        //uint[] memory listOfRefunds = new uint[](trueLength); //moving values to memory\r\n        uint iter = 0;\r\n       while (trueLength > 0){\r\n           if(allFunders[iter] != address(0)){\r\n               allFunders[iter].transfer(addressToValue[allFunders[iter]].fund - uint(price));\r\n               funderList.push(allFunders[iter]);\r\n               trueLength--;\r\n           }\r\n           iter++;\r\n       }\r\n\r\n        owner.transfer(address(this).balance);\r\n        \r\n        delete values;\r\n        delete goal;\r\n        delete finishTime;\r\n    }\r\n    \r\n    function getBalance() public view returns (uint){\r\n        return address(this).balance;\r\n    }\r\n    function getGoal() public view returns (uint){\r\n        return uint(goal);\r\n    }\r\n    function getFunderList() public view returns (address[] memory){\r\n        address[] memory nonPayable = new address[](allFunders.length);\r\n        for(uint i =0;i<allFunders.length;i++){\r\n            nonPayable[i] = address(allFunders[i]);\r\n        }\r\n        return nonPayable;\r\n    }\r\n}\r\n",
  "sourcePath": "/mnt/c/Users/Andrew Chen/Documents/github/CrowdFunding/dapp_crowdfunding_site/contracts/crowdfunding.sol",
  "compiler": {
    "name": "solc",
    "version": "0.5.12+commit.7709ece9.Emscripten.clang"
  },
  "schemaVersion": "3.0.16",
  "updatedAt": "2019-10-29T11:01:54.489Z",
  "devdoc": {
    "methods": {}
  },
  "userdoc": {
    "methods": {}
  }
}