{
  "contractName": "storeData",
  "abi": [
    {
      "constant": true,
      "inputs": [
        {
          "internalType": "uint256",
          "name": "",
          "type": "uint256"
        }
      ],
      "name": "contractList",
      "outputs": [
        {
          "internalType": "address",
          "name": "",
          "type": "address"
        }
      ],
      "payable": false,
      "stateMutability": "view",
      "type": "function"
    },
    {
      "constant": false,
      "inputs": [
        {
          "internalType": "address",
          "name": "incontract",
          "type": "address"
        }
      ],
      "name": "createCrowdFund",
      "outputs": [
        {
          "internalType": "address",
          "name": "",
          "type": "address"
        }
      ],
      "payable": false,
      "stateMutability": "nonpayable",
      "type": "function"
    },
    {
      "constant": true,
      "inputs": [],
      "name": "returnList",
      "outputs": [
        {
          "internalType": "address[]",
          "name": "",
          "type": "address[]"
        }
      ],
      "payable": false,
      "stateMutability": "view",
      "type": "function"
    },
    {
      "constant": false,
      "inputs": [
        {
          "internalType": "address",
          "name": "icontract",
          "type": "address"
        }
      ],
      "name": "completeFunding",
      "outputs": [],
      "payable": false,
      "stateMutability": "nonpayable",
      "type": "function"
    },
    {
      "constant": true,
      "inputs": [],
      "name": "usergetList",
      "outputs": [
        {
          "internalType": "address[]",
          "name": "",
          "type": "address[]"
        }
      ],
      "payable": false,
      "stateMutability": "view",
      "type": "function"
    },
    {
      "constant": true,
      "inputs": [],
      "name": "nonusergetList",
      "outputs": [
        {
          "internalType": "address[]",
          "name": "",
          "type": "address[]"
        }
      ],
      "payable": false,
      "stateMutability": "view",
      "type": "function"
    }
  ],
  "bytecode": "0x608060405234801561001057600080fd5b50610b30806100206000396000f3fe608060405234801561001057600080fd5b50600436106100625760003560e01c80633a1311fa146100675780634392b263146100ab5780634bd99ba51461010a5780635ee6d114146101695780636a5bb5d8146101c85780638898750d14610236575b600080fd5b6100a96004803603602081101561007d57600080fd5b81019080803573ffffffffffffffffffffffffffffffffffffffff1690602001909291905050506102ba565b005b6100b3610530565b6040518080602001828103825283818151815260200191508051906020019060200280838360005b838110156100f65780820151818401526020810190506100db565b505050509050019250505060405180910390f35b610112610720565b6040518080602001828103825283818151815260200191508051906020019060200280838360005b8381101561015557808201518184015260208101905061013a565b505050509050019250505060405180910390f35b61017161090e565b6040518080602001828103825283818151815260200191508051906020019060200280838360005b838110156101b4578082015181840152602081019050610199565b505050509050019250505060405180910390f35b6101f4600480360360208110156101de57600080fd5b810190808035906020019092919050505061099c565b604051808273ffffffffffffffffffffffffffffffffffffffff1673ffffffffffffffffffffffffffffffffffffffff16815260200191505060405180910390f35b6102786004803603602081101561024c57600080fd5b81019080803573ffffffffffffffffffffffffffffffffffffffff1690602001909291905050506109d8565b604051808273ffffffffffffffffffffffffffffffffffffffff1673ffffffffffffffffffffffffffffffffffffffff16815260200191505060405180910390f35b60008090506000809050600091505b60008054905082101561035757600082815481106102e357fe5b9060005260206000200160009054906101000a900473ffffffffffffffffffffffffffffffffffffffff1673ffffffffffffffffffffffffffffffffffffffff168373ffffffffffffffffffffffffffffffffffffffff16141561034a5760019050610357565b81806001019250506102c9565b801561052b576000828154811061036a57fe5b9060005260206000200160006101000a81549073ffffffffffffffffffffffffffffffffffffffff0219169055600060018303815481106103a757fe5b9060005260206000200160006101000a81549073ffffffffffffffffffffffffffffffffffffffff02191690556001600080549050038214610511576000600160008054905003815481106103f857fe5b9060005260206000200160009054906101000a900473ffffffffffffffffffffffffffffffffffffffff166000838154811061043057fe5b9060005260206000200160006101000a81548173ffffffffffffffffffffffffffffffffffffffff021916908373ffffffffffffffffffffffffffffffffffffffff16021790555060006002600080549050038154811061048d57fe5b9060005260206000200160009054906101000a900473ffffffffffffffffffffffffffffffffffffffff16600060018403815481106104c857fe5b9060005260206000200160006101000a81548173ffffffffffffffffffffffffffffffffffffffff021916908373ffffffffffffffffffffffffffffffffffffffff1602179055505b60026000818180549050039150816105299190610aaa565b505b505050565b6060600080905060008090505b6000805490508110156105c9573373ffffffffffffffffffffffffffffffffffffffff166000828154811061056e57fe5b9060005260206000200160009054906101000a900473ffffffffffffffffffffffffffffffffffffffff1673ffffffffffffffffffffffffffffffffffffffff1614156105be5781806001019250505b60028101905061053d565b506060816040519080825280602002602001820160405280156105fb5781602001602082028038833980820191505090505b509050600080905060008090505b600080549050811015610716573373ffffffffffffffffffffffffffffffffffffffff166000828154811061063a57fe5b9060005260206000200160009054906101000a900473ffffffffffffffffffffffffffffffffffffffff1673ffffffffffffffffffffffffffffffffffffffff16141561070b576000600182018154811061069157fe5b9060005260206000200160009054906101000a900473ffffffffffffffffffffffffffffffffffffffff168383815181106106c857fe5b602002602001019073ffffffffffffffffffffffffffffffffffffffff16908173ffffffffffffffffffffffffffffffffffffffff168152505081806001019250505b600281019050610609565b5081935050505090565b6060600080905060008090505b6000805490508110156107b8573373ffffffffffffffffffffffffffffffffffffffff166000828154811061075e57fe5b9060005260206000200160009054906101000a900473ffffffffffffffffffffffffffffffffffffffff1673ffffffffffffffffffffffffffffffffffffffff16146107ad5781806001019250505b60028101905061072d565b506060816040519080825280602002602001820160405280156107ea5781602001602082028038833980820191505090505b509050600080905060008090505b600080549050811015610904573373ffffffffffffffffffffffffffffffffffffffff166000828154811061082957fe5b9060005260206000200160009054906101000a900473ffffffffffffffffffffffffffffffffffffffff1673ffffffffffffffffffffffffffffffffffffffff16146108f9576000600182018154811061087f57fe5b9060005260206000200160009054906101000a900473ffffffffffffffffffffffffffffffffffffffff168383815181106108b657fe5b602002602001019073ffffffffffffffffffffffffffffffffffffffff16908173ffffffffffffffffffffffffffffffffffffffff168152505081806001019250505b6002810190506107f8565b5081935050505090565b6060600080548060200260200160405190810160405280929190818152602001828054801561099257602002820191906000526020600020905b8160009054906101000a900473ffffffffffffffffffffffffffffffffffffffff1673ffffffffffffffffffffffffffffffffffffffff1681526020019060010190808311610948575b5050505050905090565b600081815481106109a957fe5b906000526020600020016000915054906101000a900473ffffffffffffffffffffffffffffffffffffffff1681565b6000803390806001815401808255809150509060018203906000526020600020016000909192909190916101000a81548173ffffffffffffffffffffffffffffffffffffffff021916908373ffffffffffffffffffffffffffffffffffffffff1602179055505060008290806001815401808255809150509060018203906000526020600020016000909192909190916101000a81548173ffffffffffffffffffffffffffffffffffffffff021916908373ffffffffffffffffffffffffffffffffffffffff16021790555050919050565b815481835581811115610ad157818360005260206000209182019101610ad09190610ad6565b5b505050565b610af891905b80821115610af4576000816000905550600101610adc565b5090565b9056fea265627a7a7231582067007a35d4e4a613092641d2d34931c6da1e380b549a13b41d54f795e98fca6f64736f6c634300050c0032",
  "source": "pragma solidity >=0.4.22 <0.6.0;\r\n\r\ncontract storeData {\r\n\r\n    address[] public contractList;\r\n\r\n    function createCrowdFund(address incontract) public returns (address){\r\n        contractList.push(msg.sender);\r\n        contractList.push(incontract);\r\n    }\r\n\tfunction returnList() public view returns (address[] memory){\r\n\t\treturn contractList;\r\n\t}\r\n\tfunction completeFunding(address icontract) public {\r\n\t\tuint i = 0;\r\n\t\tbool hit = false;\r\n\t\tfor(i=0;i<contractList.length;i++){\r\n\t\t\tif(icontract == contractList[i]){\r\n\t\t\t\thit = true;\r\n\t\t\t\tbreak;\r\n\t\t\t}\r\n\t\t}\r\n\t\tif(hit){\r\n\t\t\tdelete contractList[i];\r\n\t\t\tdelete contractList[i-1];\r\n\t\t\tif(i != contractList.length-1){\r\n\t\t\t\tcontractList[i] = contractList[contractList.length-1];\r\n\t\t\t\tcontractList[i-1] = contractList[contractList.length-2];\r\n\t\t\t}\r\n\t\t\tcontractList.length -= 2;\r\n\t\t}\r\n\t}\r\n\tfunction usergetList() public view returns(address[] memory){\r\n\t\tuint amount = 0;\r\n\t\tfor(uint i = 0;i<contractList.length;i+= 2){\r\n\t\t\tif(contractList[i] == msg.sender){\r\n\t\t\t\tamount++;\r\n\t\t\t}\r\n\t\t}\r\n\t\taddress[] memory theList = new address[](amount);\r\n\t\tuint index = 0;\r\n\t\tfor(uint i = 0;i<contractList.length;i+=2){\r\n\t\t\tif(contractList[i] == msg.sender){\r\n\t\t\t\ttheList[index] = contractList[i+1];\r\n\t\t\t\tindex++;\r\n\t\t\t}\r\n\t\t}\r\n\t\treturn theList;\r\n\t\t\r\n\t}\r\n\tfunction nonusergetList() public view returns(address[] memory){\r\n\t\tuint amount = 0;\r\n\t\tfor(uint i = 0;i<contractList.length;i+= 2){\r\n\t\t\tif(contractList[i] != msg.sender){\r\n\t\t\t\tamount++;\r\n\t\t\t}\r\n\t\t}\r\n\t\taddress[] memory theList = new address[](amount);\r\n\t\tuint index = 0;\r\n\t\tfor(uint i = 0;i<contractList.length;i+=2){\r\n\t\t\tif(contractList[i] != msg.sender){\r\n\t\t\t\ttheList[index] = contractList[i+1];\r\n\t\t\t\tindex++;\r\n\t\t\t}\r\n\t\t}\r\n\t\treturn theList;\r\n\t}\r\n}",
  "sourcePath": "/mnt/c/Users/Andrew Chen/Documents/github/CrowdFunding/dapp_crowdfunding_site/contracts/storeData.sol",
  "compiler": {
    "name": "solc",
    "version": "0.5.12+commit.7709ece9.Emscripten.clang"
  },
  "schemaVersion": "3.0.16",
  "updatedAt": "2019-10-29T11:01:54.443Z",
  "devdoc": {
    "methods": {}
  },
  "userdoc": {
    "methods": {}
  }
}