{
  "contractName": "storeData",
  "abi": [
    {
      "constant": true,
      "inputs": [
        {
          "internalType": "uint256",
          "name": "",
          "type": "uint256"
        }
      ],
      "name": "contractList",
      "outputs": [
        {
          "internalType": "address",
          "name": "",
          "type": "address"
        }
      ],
      "payable": false,
      "stateMutability": "view",
      "type": "function"
    },
    {
      "constant": false,
      "inputs": [
        {
          "internalType": "address",
          "name": "incontract",
          "type": "address"
        }
      ],
      "name": "createCrowdFund",
      "outputs": [
        {
          "internalType": "address",
          "name": "",
          "type": "address"
        }
      ],
      "payable": false,
      "stateMutability": "nonpayable",
      "type": "function"
    },
    {
      "constant": true,
      "inputs": [],
      "name": "returnList",
      "outputs": [
        {
          "internalType": "address[]",
          "name": "",
          "type": "address[]"
        }
      ],
      "payable": false,
      "stateMutability": "view",
      "type": "function"
    },
    {
      "constant": true,
      "inputs": [],
      "name": "usergetList",
      "outputs": [
        {
          "internalType": "address[]",
          "name": "",
          "type": "address[]"
        }
      ],
      "payable": false,
      "stateMutability": "view",
      "type": "function"
    },
    {
      "constant": true,
      "inputs": [],
      "name": "nonusergetList",
      "outputs": [
        {
          "internalType": "address[]",
          "name": "",
          "type": "address[]"
        }
      ],
      "payable": false,
      "stateMutability": "view",
      "type": "function"
    }
  ],
  "bytecode": "0x608060405234801561001057600080fd5b5061081a806100206000396000f3fe608060405234801561001057600080fd5b50600436106100575760003560e01c80634392b2631461005c5780634bd99ba5146100bb5780635ee6d1141461011a5780636a5bb5d8146101795780638898750d146101e7575b600080fd5b61006461026b565b6040518080602001828103825283818151815260200191508051906020019060200280838360005b838110156100a757808201518184015260208101905061008c565b505050509050019250505060405180910390f35b6100c361045b565b6040518080602001828103825283818151815260200191508051906020019060200280838360005b838110156101065780820151818401526020810190506100eb565b505050509050019250505060405180910390f35b610122610649565b6040518080602001828103825283818151815260200191508051906020019060200280838360005b8381101561016557808201518184015260208101905061014a565b505050509050019250505060405180910390f35b6101a56004803603602081101561018f57600080fd5b81019080803590602001909291905050506106d7565b604051808273ffffffffffffffffffffffffffffffffffffffff1673ffffffffffffffffffffffffffffffffffffffff16815260200191505060405180910390f35b610229600480360360208110156101fd57600080fd5b81019080803573ffffffffffffffffffffffffffffffffffffffff169060200190929190505050610713565b604051808273ffffffffffffffffffffffffffffffffffffffff1673ffffffffffffffffffffffffffffffffffffffff16815260200191505060405180910390f35b6060600080905060008090505b600080549050811015610304573373ffffffffffffffffffffffffffffffffffffffff16600082815481106102a957fe5b9060005260206000200160009054906101000a900473ffffffffffffffffffffffffffffffffffffffff1673ffffffffffffffffffffffffffffffffffffffff1614156102f95781806001019250505b600281019050610278565b506060816040519080825280602002602001820160405280156103365781602001602082028038833980820191505090505b509050600080905060008090505b600080549050811015610451573373ffffffffffffffffffffffffffffffffffffffff166000828154811061037557fe5b9060005260206000200160009054906101000a900473ffffffffffffffffffffffffffffffffffffffff1673ffffffffffffffffffffffffffffffffffffffff16141561044657600060018201815481106103cc57fe5b9060005260206000200160009054906101000a900473ffffffffffffffffffffffffffffffffffffffff1683838151811061040357fe5b602002602001019073ffffffffffffffffffffffffffffffffffffffff16908173ffffffffffffffffffffffffffffffffffffffff168152505081806001019250505b600281019050610344565b5081935050505090565b6060600080905060008090505b6000805490508110156104f3573373ffffffffffffffffffffffffffffffffffffffff166000828154811061049957fe5b9060005260206000200160009054906101000a900473ffffffffffffffffffffffffffffffffffffffff1673ffffffffffffffffffffffffffffffffffffffff16146104e85781806001019250505b600281019050610468565b506060816040519080825280602002602001820160405280156105255781602001602082028038833980820191505090505b509050600080905060008090505b60008054905081101561063f573373ffffffffffffffffffffffffffffffffffffffff166000828154811061056457fe5b9060005260206000200160009054906101000a900473ffffffffffffffffffffffffffffffffffffffff1673ffffffffffffffffffffffffffffffffffffffff161461063457600060018201815481106105ba57fe5b9060005260206000200160009054906101000a900473ffffffffffffffffffffffffffffffffffffffff168383815181106105f157fe5b602002602001019073ffffffffffffffffffffffffffffffffffffffff16908173ffffffffffffffffffffffffffffffffffffffff168152505081806001019250505b600281019050610533565b5081935050505090565b606060008054806020026020016040519081016040528092919081815260200182805480156106cd57602002820191906000526020600020905b8160009054906101000a900473ffffffffffffffffffffffffffffffffffffffff1673ffffffffffffffffffffffffffffffffffffffff1681526020019060010190808311610683575b5050505050905090565b600081815481106106e457fe5b906000526020600020016000915054906101000a900473ffffffffffffffffffffffffffffffffffffffff1681565b6000803390806001815401808255809150509060018203906000526020600020016000909192909190916101000a81548173ffffffffffffffffffffffffffffffffffffffff021916908373ffffffffffffffffffffffffffffffffffffffff1602179055505060008290806001815401808255809150509060018203906000526020600020016000909192909190916101000a81548173ffffffffffffffffffffffffffffffffffffffff021916908373ffffffffffffffffffffffffffffffffffffffff1602179055505091905056fea265627a7a72315820d1ce1d1bec3c23245d31a542e836031e96d8ce63edde0043694522419f01f6cb64736f6c634300050c0032",
  "source": "pragma solidity >=0.4.22 <0.6.0;\r\n\r\ncontract storeData {\r\n\r\n    address[] public contractList;\r\n\r\n    function createCrowdFund(address incontract) public returns (address){\r\n        contractList.push(msg.sender);\r\n        contractList.push(incontract);\r\n    }\r\n\tfunction returnList() public view returns (address[] memory){\r\n\t\treturn contractList;\r\n\t}\r\n\tfunction usergetList() public view returns(address[] memory){\r\n\t\tuint amount = 0;\r\n\t\tfor(uint i = 0;i<contractList.length;i+= 2){\r\n\t\t\tif(contractList[i] == msg.sender){\r\n\t\t\t\tamount++;\r\n\t\t\t}\r\n\t\t}\r\n\t\taddress[] memory theList = new address[](amount);\r\n\t\tuint index = 0;\r\n\t\tfor(uint i = 0;i<contractList.length;i+=2){\r\n\t\t\tif(contractList[i] == msg.sender){\r\n\t\t\t\ttheList[index] = contractList[i+1];\r\n\t\t\t\tindex++;\r\n\t\t\t}\r\n\t\t}\r\n\t\treturn theList;\r\n\t\t\r\n\t}\r\n\tfunction nonusergetList() public view returns(address[] memory){\r\n\t\tuint amount = 0;\r\n\t\tfor(uint i = 0;i<contractList.length;i+= 2){\r\n\t\t\tif(contractList[i] != msg.sender){\r\n\t\t\t\tamount++;\r\n\t\t\t}\r\n\t\t}\r\n\t\taddress[] memory theList = new address[](amount);\r\n\t\tuint index = 0;\r\n\t\tfor(uint i = 0;i<contractList.length;i+=2){\r\n\t\t\tif(contractList[i] != msg.sender){\r\n\t\t\t\ttheList[index] = contractList[i+1];\r\n\t\t\t\tindex++;\r\n\t\t\t}\r\n\t\t}\r\n\t\treturn theList;\r\n\t}\r\n}",
  "sourcePath": "/mnt/c/Users/Andrew Chen/Documents/github/CrowdFunding/DAPP website/contracts/storeData.sol",
  "compiler": {
    "name": "solc",
    "version": "0.5.12+commit.7709ece9.Emscripten.clang"
  },
  "schemaVersion": "3.0.16",
  "updatedAt": "2019-10-28T16:08:33.887Z",
  "devdoc": {
    "methods": {}
  },
  "userdoc": {
    "methods": {}
  }
}