{
  "contractName": "storeData",
  "abi": [
    {
      "constant": true,
      "inputs": [
        {
          "name": "",
          "type": "uint256"
        }
      ],
      "name": "contractList",
      "outputs": [
        {
          "name": "",
          "type": "address"
        }
      ],
      "payable": false,
      "stateMutability": "view",
      "type": "function"
    },
    {
      "constant": false,
      "inputs": [
        {
          "name": "incontract",
          "type": "address"
        }
      ],
      "name": "createCrowdFund",
      "outputs": [
        {
          "name": "",
          "type": "address"
        }
      ],
      "payable": false,
      "stateMutability": "nonpayable",
      "type": "function"
    },
    {
      "constant": true,
      "inputs": [],
      "name": "usergetList",
      "outputs": [
        {
          "name": "",
          "type": "address[]"
        }
      ],
      "payable": false,
      "stateMutability": "view",
      "type": "function"
    },
    {
      "constant": true,
      "inputs": [],
      "name": "nonusergetList",
      "outputs": [
        {
          "name": "",
          "type": "address[]"
        }
      ],
      "payable": false,
      "stateMutability": "view",
      "type": "function"
    }
  ],
  "bytecode": "0x608060405234801561001057600080fd5b50610719806100206000396000f3fe608060405234801561001057600080fd5b506004361061004c5760003560e01c80634392b263146100515780634bd99ba5146100b05780636a5bb5d81461010f5780638898750d1461017d575b600080fd5b610059610201565b6040518080602001828103825283818151815260200191508051906020019060200280838360005b8381101561009c578082015181840152602081019050610081565b505050509050019250505060405180910390f35b6100b86103f1565b6040518080602001828103825283818151815260200191508051906020019060200280838360005b838110156100fb5780820151818401526020810190506100e0565b505050509050019250505060405180910390f35b61013b6004803603602081101561012557600080fd5b81019080803590602001909291905050506105df565b604051808273ffffffffffffffffffffffffffffffffffffffff1673ffffffffffffffffffffffffffffffffffffffff16815260200191505060405180910390f35b6101bf6004803603602081101561019357600080fd5b81019080803573ffffffffffffffffffffffffffffffffffffffff16906020019092919050505061061b565b604051808273ffffffffffffffffffffffffffffffffffffffff1673ffffffffffffffffffffffffffffffffffffffff16815260200191505060405180910390f35b6060600080905060008090505b60008054905081101561029a573373ffffffffffffffffffffffffffffffffffffffff166000828154811061023f57fe5b9060005260206000200160009054906101000a900473ffffffffffffffffffffffffffffffffffffffff1673ffffffffffffffffffffffffffffffffffffffff16141561028f5781806001019250505b60028101905061020e565b506060816040519080825280602002602001820160405280156102cc5781602001602082028038833980820191505090505b509050600080905060008090505b6000805490508110156103e7573373ffffffffffffffffffffffffffffffffffffffff166000828154811061030b57fe5b9060005260206000200160009054906101000a900473ffffffffffffffffffffffffffffffffffffffff1673ffffffffffffffffffffffffffffffffffffffff1614156103dc576000600182018154811061036257fe5b9060005260206000200160009054906101000a900473ffffffffffffffffffffffffffffffffffffffff1683838151811061039957fe5b602002602001019073ffffffffffffffffffffffffffffffffffffffff16908173ffffffffffffffffffffffffffffffffffffffff168152505081806001019250505b6002810190506102da565b5081935050505090565b6060600080905060008090505b600080549050811015610489573373ffffffffffffffffffffffffffffffffffffffff166000828154811061042f57fe5b9060005260206000200160009054906101000a900473ffffffffffffffffffffffffffffffffffffffff1673ffffffffffffffffffffffffffffffffffffffff161461047e5781806001019250505b6002810190506103fe565b506060816040519080825280602002602001820160405280156104bb5781602001602082028038833980820191505090505b509050600080905060008090505b6000805490508110156105d5573373ffffffffffffffffffffffffffffffffffffffff16600082815481106104fa57fe5b9060005260206000200160009054906101000a900473ffffffffffffffffffffffffffffffffffffffff1673ffffffffffffffffffffffffffffffffffffffff16146105ca576000600182018154811061055057fe5b9060005260206000200160009054906101000a900473ffffffffffffffffffffffffffffffffffffffff1683838151811061058757fe5b602002602001019073ffffffffffffffffffffffffffffffffffffffff16908173ffffffffffffffffffffffffffffffffffffffff168152505081806001019250505b6002810190506104c9565b5081935050505090565b600081815481106105ec57fe5b906000526020600020016000915054906101000a900473ffffffffffffffffffffffffffffffffffffffff1681565b6000803390806001815401808255809150509060018203906000526020600020016000909192909190916101000a81548173ffffffffffffffffffffffffffffffffffffffff021916908373ffffffffffffffffffffffffffffffffffffffff1602179055505060008290806001815401808255809150509060018203906000526020600020016000909192909190916101000a81548173ffffffffffffffffffffffffffffffffffffffff021916908373ffffffffffffffffffffffffffffffffffffffff1602179055505091905056fea165627a7a72305820768903e7dcc2ae82716151a8dcf59bd32becdf3cf1414d27c564739646885a6b0029",
  "source": "pragma solidity >=0.4.22 <0.6.0;\r\n\r\ncontract storeData {\r\n\r\n    address[] public contractList;\r\n\r\n    function createCrowdFund(address incontract) public returns (address){\r\n        contractList.push(msg.sender);\r\n        contractList.push(incontract);\r\n    }\r\n\tfunction usergetList() public view returns(address[] memory){\r\n\t\tuint amount = 0;\r\n\t\tfor(uint i = 0;i<contractList.length;i+= 2){\r\n\t\t\tif(contractList[i] == msg.sender){\r\n\t\t\t\tamount++;\r\n\t\t\t}\r\n\t\t}\r\n\t\taddress[] memory theList = new address[](amount);\r\n\t\tuint index = 0;\r\n\t\tfor(uint i = 0;i<contractList.length;i+=2){\r\n\t\t\tif(contractList[i] == msg.sender){\r\n\t\t\t\ttheList[index] = contractList[i+1];\r\n\t\t\t\tindex++;\r\n\t\t\t}\r\n\t\t}\r\n\t\treturn theList;\r\n\t\t\r\n\t}\r\n\tfunction nonusergetList() public view returns(address[] memory){\r\n\t\tuint amount = 0;\r\n\t\tfor(uint i = 0;i<contractList.length;i+= 2){\r\n\t\t\tif(contractList[i] != msg.sender){\r\n\t\t\t\tamount++;\r\n\t\t\t}\r\n\t\t}\r\n\t\taddress[] memory theList = new address[](amount);\r\n\t\tuint index = 0;\r\n\t\tfor(uint i = 0;i<contractList.length;i+=2){\r\n\t\t\tif(contractList[i] != msg.sender){\r\n\t\t\t\ttheList[index] = contractList[i+1];\r\n\t\t\t\tindex++;\r\n\t\t\t}\r\n\t\t}\r\n\t\treturn theList;\r\n\t}\r\n}",
  "sourcePath": "/mnt/c/Users/Andrew Chen/Documents/github/DAPP website/contracts/storeData.sol",
  "compiler": {
    "name": "solc",
    "version": "0.5.8+commit.23d335f2.Emscripten.clang"
  },
  "schemaVersion": "3.0.16",
  "updatedAt": "2019-10-28T04:25:29.106Z",
  "devdoc": {
    "methods": {}
  },
  "userdoc": {
    "methods": {}
  }
}